:04100000B3EF11F049
:08100800046ED8CF05F0E0CF23
:1010100006F00001E9CF0CF0EACF07F0E1CF08F0CD
:10102000E2CF09F0D9CF0AF0DACF0BF0F3CF12F00C
:10103000F4CF13F0FACF14F0F5CF15F0F6CF16F089
:10104000F7CF17F000C00EF001C00FF002C010F093
:1010500003C011F0A0AA30EF08F0A1BAAFEF10F072
:101060000EC000F00FC001F010C002F011C003F07C
:101070000CC0E9FF07C0EAFF078E08C0E1FF09C006
:10108000E2FF0AC0D9FF0BC0DAFF12C0F3FF13C0A2
:10109000F4FF14C0FAFF15C0F5FF16C0F6FF17C025
:1010A000F7FF045006C0E0FF05C0D8FF1000F76A44
:1010B000BE0FF66E100EF7220900F5501200000365
:1010C00002FFFFFFFFFFFFFFFFFFFFFFFFFFF76ACA
:1010D000DE0FF66E100EF7220900F550120000FF29
:1010E00002FFFFFFFFFFFFFFFFFFFFFFFFFFF76AAA
:1010F000FE0FF66E100EF7220900F55012004000A8
:101100000800400000000000000000000000000097
:101110000000000000000000000000000000F76A6E
:101120002E0FF66E110EF7220900F5501200400046
:10113000000040000000000000000000000000006F
:101140000000000000000000000000000000F76A3E
:101150005E0FF66E110EF7220900F550120009021B
:101160004300020100803209040000010202010074
:1011700005240010010424020205240600010524B0
:10118000010001070581030800FA09040100020AB1
:10119000000000070502024000010705820240002E
:1011A0000100F76AB20FF66E110EF7220900F55032
:1011B00012000200F76AC40FF66E110EF722090042
:1011C000F550120012171B20FFFFFFFFF76ADC0F1C
:1011D000F66E110EF7220900F550120012011001EF
:1011E0000200004061043300000101020001F76ABF
:1011F000FE0FF66E110EF7220900F55012000403DF
:10120000090408034300430053001803530045003A
:101210005200490041004C002000440045004D00B0
:101220004F006D92699468A402D06894FCD7BBEF1C
:1012300010F0400E0401016F040E036F180E026FD0
:10124000880E006F046B040E076F580E066F0001C6
:10125000000C70A002D0EDDF7090689AC4EF10F01F
:101260006A6A6892CAEF10F00301039102BF03811A
:10127000029F0251100803E2000E016E1BD003A171
:101280000DD0036A0251000112DFFF0802E1000ED7
:1012900001D0010E016E03010DD00CD0036A025182
:1012A000000115DFFF0802E1000E01D0010E016E02
:1012B000030100D00001000C030109510B03F3CF1F
:1012C00001F0F4CF00F00C03F35000260A510B0399
:1012D000F3500020026E0001000C036A030101516B
:1012E000700FE96E0F0E0320EA6EEF6A01C302F37E
:1012F0000001BADF015227E003010A6B01C309F3C1
:101300000C6B080E0B6F0001D7DF030101C0E9FF72
:10131000040E0224EA6EEF6A0A6B01C309F30C6B38
:10132000080E0B6F0001C8DF02C003F301C002F317
:10133000040E03010227000E032302C3E9FF040E7B
:101340000325EA6EEF6A0001000C010E0301006F35
:1013500000510F0807E300C301F30001BEDF0301E2
:10136000002BF6D70001000C2C6A2B6A250E2A6E82
:10137000800E296E2D6A2E6A080E2F6E7E6B7D916F
:10138000316A306A796B7A91000C0201F66BF65182
:1013900001080AE3036AF651270FE96E000E0320E5
:1013A000EA6EEF6AF62BF3D70001DEDF1B6A010E4F
:1013B0001C6E1A6A000C6896000C6A6A686A9F0EB6
:1013C0006B6E3D0E696E6E6AC0DFDFDF160E706EEB
:1013D00068A602D0F0DFFCD76D982BDF030E226EDB
:1013E000D0EF10F0698468986D82D6EF10F0689C99
:1013F000DCEF10F0FBC223F0000CFF0E236E000C9C
:101400000201F96B26522CE0F9513F0829E31D50E7
:10141000000A000105E0020A09E0010A0DE012D00D
:10142000036A255094DEE8CFFAF20CD0036A255007
:10143000DEDEE8CFFAF206D0036A2550C7DEE8CF39
:10144000FAF200D0252A26060201F951F92B580F8D
:10145000E96E040EEA6ED8B0EA2AFAC2EFFFD2D7DC
:10146000265204E1F951400801E01A6AF9C2FBF280
:101470000001C0DF000C256A1D6A04011B51010A2E
:10148000000107E0030A0AE0010A0BE0220A1BE060
:101490002BD0120E266E030E1D6E28D0430E266E24
:1014A00025D0020E1D6E036A04011A511E0FE96E4B
:1014B000000E0320EA6EEFCF25F0036A25500001ED
:1014C00096DE266E13D0036A04011A51000172DE03
:1014D000256E253C01D006D0036A255038DE266EE5
:1014E00005D002D08ADF0ED088DF0CD004011F5354
:1014F00005E126501E5D02E21EC426F0010E1A6EA2
:1015000000017EDFD6EF0BF00201F85306E1040E76
:10151000226E00011ADFEDD00201050E226E040ECC
:10152000FB6F980EFA6F010EF96FF9510F08D8A0F2
:10153000E0D0F9C201F30001D0DE0201FC6B036AC6
:10154000F9510001C4DDFF0868E0040E0201FC6FE0
:10155000D890F935036A0001E2DD0900F5CF03F008
:101560000201FD6F03C0FEF203010A6BF9C209F329
:101570000C6B080E0B6F00019FDE01C000F3010E23
:1015800003010124016E000E0220036E01C0E9FF79
:10159000040E0324EA6EFDC2EFFF0A6BF9C209F3E1
:1015A0000C6B080E0B6F000187DE01C000F3020E0A
:1015B00003010124016E000E0220036E01C0E9FF49
:1015C000040E0324EA6EFBC2ECFFED52FAC2EFFFF9
:1015D000D8900201F935036A0001A1DD0900F5CFB9
:1015E00003F00201FA270350FB23880EFF6FFEB1C0
:1015F000FF81FEB3FF8303010A6BF9C209F30C6B91
:10160000080E0B6F000158DE030101C0E9FF040E54
:101610000224EA6EFFC2EFFF0001036A0201F951E2
:10162000000145DDFF084AE00201FC8303010A6B6B
:10163000F9C209F30C6B080E0B6F00013DDE02C00E
:1016400001F301C000F3040E03010027000E012383
:10165000020E0025016E000E0121036E01C0E9FF9C
:10166000040E0324EA6EFBC2ECFFED52FAC2EFFF58
:10167000D8900201F935036A000139DD0900F5CF80
:1016800003F00201FA270350FB2303010A6BF9C29E
:1016900009F30C6B080E0B6F00010EDE02C001F3A4
:1016A00001C000F3040E03010027000E012300C354
:1016B000E9FF040E0125EA6E400EEF6E0201FC51B7
:1016C000060802E10E0EFC6F036AF9510001EFDC1F
:1016D000010803E00201FC890001036A0201F951DB
:1016E000700FE96E0F0E0320EA6EFCC2EFFFF92BBC
:1016F0001CD70001CEEF0BF004011951000A0001C4
:101700000DE0010A15E0020A20E0060A2AE0030AB9
:1017100031E00E0A31E0010A37E046D01CC058F42F
:101720000401596B020E0201FB6F000163DE3ED023
:1017300004011A2D07D0010E1C160201FB6B0001DB
:1017400059DE02D0000159DE31D004011A2D06D035
:101750001C820201FB6B00014DDE02D000014DDE58
:1017600025D0020E1A6E1AC424F00201FB6B000190
:1017700041DE1CD080D61AD01BC058F4010E0201E5
:10178000FB6F000137DE12D004011A5101080AE391
:101790001AC41BF01AC4F8F20001B6D60201FB6BA2
:1017A000000128DE000102D028DE00D075EF0DF028
:1017B0001BC0F8F204011951000A000105E00A0AF1
:1017C0000CE0010A2BE03FD00401586B596B020E6C
:1017D0000201FB6F00010EDE38D00201F8531BE05E
:1017E000010EF85D036A0001DCDC016E04011C5D82
:1017F000D8A002D002010FD0036A1C51270FE96E56
:10180000000E0320EA6EEFCF58F4010E0201FB6FC9
:101810000001F0DD02D00001F0DD17D00201F85325
:101820000FE0036A04011C51270FE96E000E03202C
:10183000EA6E1AC4EFFF0201FB6B0001DBDD02D090
:101840000001DBDD02D0D9DD00D075EF0DF0020123
:10185000F991F8BFF981F89FF9A11AD003010A6B39
:10186000F8C209F30C6B080E0B6F000125DD02C0F6
:10187000FBF201C0FAF2040E0201FA27000EFB236C
:10188000FAC2E9FF040EFB25EA6E880EEF6E10D057
:1018900003010A6BF8C209F30C6B080E0B6F000111
:1018A0000BDD020101C0E9FF040E0224EA6EEF6ABB
:1018B0000001DFEF0CF00201F991F8BFF981F89F08
:1018C000F9A11AD003010A6BF8C209F30C6B080ED8
:1018D0000B6F0001F1DC02C0FBF201C0FAF2040E52
:1018E0000201FA27000EFB23FAC2E9FF040EFB25D2
:1018F000EA6E840EEF6E11D003010A6BF8C209F391
:101900000C6B080E0B6F0001D7DC020101C0E9FF70
:10191000040E0224EA6E840EEF6E0001E7EF0CF075
:101920000201F991F8BFF981F89FF9A11AD00301DA
:101930000A6BF8C209F30C6B080E0B6F0001BCDCDC
:1019400002C0FCF201C0FBF2040E0201FB27000EF4
:10195000FC23FBC2E9FF040EFC25EA6EEFCFFAF28E
:1019600011D003010A6BF8C209F30C6B080E0B6F60
:101970000001A2DC020101C0E9FF040E0224EA6EAC
:10198000EFCFFAF2FAAF02D0FAB502D0000E01D0D2
:10199000010E016E0001F3EF0CF01CC402F364DCD5
:1019A00001522EE004011951010A000105E0020A6A
:1019B0000BE0030A11E022D01CC4F8F248D7020160
:1019C000FB6B000117DD1CD01CC4F8F274D70201B8
:1019D000FB6B00010FDD14D00401586B596B1CC464
:1019E000F8F200019DD7015203E0010E0401586F87
:1019F000020E0201FB6F0001FDDC02D0FEDC00D014
:101A000075EF0DF0FE0E236E000C04011C2D01D0AD
:101A100002D01C534FE11951000A00010BE0010AEA
:101A20000DE0210A1CE0010A1FE0030A30E0010A70
:101A300035E03DD0010E806FE5DF3BD0040EEA6E4D
:101A4000580EE96EE26A320EE16E080E016EE6CFC4
:101A5000EEFF012EFCD71EC4FBF2CCDC2AD0020E16
:101A6000806F7D81CFDF25D0040EEA6E580EE96EBF
:101A7000E26A290EE16E070E016EE6CFEEFF012E3F
:101A8000FCD7070E0201FB6F0001B4DC12D01AC4B0
:101A90007EF00201FB6B0001ADDC0BD01AC431F00B
:101AA0001BC430F00201FB6B0001A4DC02D0A5DCFA
:101AB00000D00401000175EF0DF01A6A04011851FD
:101AC0007F0B000A000107E0010A07E0030A07E0B4
:101AD000230A07E008D010D608D06AD606D05DD712
:101AE00004D093D702D089DC00D0E2EF0FF00301DD
:101AF0000A6BF9C209F30C6B080E0B6F00015CEC6A
:101B000009F0020101C0E9FF040E0224EA6EEFCFE2
:101B1000FBF2FA51020806E1FBAD02D0FA6B02D0EB
:101B2000010EFA6FFA5103081DE1840EFB6F0301E9
:101B30000A6BF9C209F30C6B080E0B6F00015CEC29
:101B400009F002C0FFF201C0FEF2040E0201FE27FE
:101B5000000EFF23FEC2E9FF040EFF25EA6E840E8D
:101B6000EF6E07D0FA2D03D0C80EFB6F02D0880E9F
:101B7000FB6FD890F935036A00018FEC08F009007B
:101B8000F5CF03F00201FC6F03C0FDF203010A6B05
:101B9000F9C209F30C6B080E0B6F00015CEC09F045
:101BA00001C0FEF2010E02010124016E000E0220AE
:101BB000036E01C0E9FF040E0324EA6EFCC2EFFFCE
:101BC000FDB1FB81FDB3FB8303010A6BF9C209F38D
:101BD0000C6B080E0B6F00015CEC09F0020101C0F8
:101BE000E9FF040E0224EA6EFBC2EFFF0001000CC5
:101BF000036A03010851700FE96E0F0E0320EA6EAD
:101C0000EF521BE00A6B08C309F30C6B080E0B6F55
:101C100000015CEC09F002C00AF301C009F3040EF4
:101C200003010927000E0A2309C3E9FF040E0A2550
:101C3000EA6EEFCF09F309AF02D0000E01D0010E1A
:101C4000016E0001000C03C308F3D2DF0152D8B4C7
:101C500086D003010A6B03C309F30C6B080E0B6FEC
:101C600000015CEC09F002C009F301C008F3040EA6
:101C700003010827000E0923010E0825016E000E3E
:101C80000921036E01C0E9FF040E0324EA6E04C3B8
:101C9000EFFF0651020820E10A6B03C309F30C6B46
:101CA000080E0B6F00015CEC09F002C009F301C0E3
:101CB00008F3040E03010827000E092308C3E9FFF7
:101CC000040E0925EA6EEFCF07F307AD02D0066BCD
:101CD00002D0010E066F1AD00651040817E10A6BF4
:101CE00003C309F30C6B080E0B6F00015CEC09F0E9
:101CF000030101C0E9FF040E0224EA6EEFCF07F3EF
:101D000007AD03D0010E066F01D0066B062D03D080
:101D1000C80E076F02D0880E076F05B1078105B3A3
:101D200007830A6B03C309F30C6B080E0B6F0001EA
:101D30005CEC09F002C009F301C008F3040E0301D2
:101D40000827000E092308C3E9FF040E0925EA6EDF
:101D500007C3EFFF010E016E05D000D00001000E99
:101D6000016E03010001000C8051010A03E0030A27
:101D700015E028D0EA6A320EE96E040EE26E180E03
:101D8000E16E080E016EE6CFEEFF012EFCD70201D8
:101D9000FB6B0001FAEC09F0806B16D0EA6A290EA1
:101DA000E96E040EE26E180EE16E070E016EE6CFCC
:101DB000EEFF012EFCD7806B0201FB6B0001FAECF9
:101DC00009F002D0806B00D023EF0FF003010A6B03
:101DD000F9C209F30C6B080E0B6F00015CEC09F003
:101DE00002C0FBF201C0FAF2010E02010124016EF1
:101DF000000E0220036E01C0E9FF040E0324EA6E08
:101E0000036AEFCF01F003C002F0000117EF0FF0FB
:101E10007A91020E0201F96FFA6F000168DE000C80
:101E20007A817C6B020E0201F96F0001CFD701C0ED
:101E30007BF07B5301E1ECDF2AEF0FF00201F85356
:101E400004E1000191D706D00201F851020803E134
:101E50000001E6D702010001000CF9C26EFF020189
:101E6000F95303E0040E226E02D0020E226E00012E
:101E70003FEF0FF01B6A1A6A24C0F9F2EED7BCEFED
:101E80000FF0FBC208F3B4DE01524AE003010A6B13
:101E9000FBC209F30C6B080E0B6F00015CEC09F040
:101EA00002C004F301C003F3040E03010327000E74
:101EB0000423020E0325016E000E0421036E01C0EF
:101EC000E9FF040E0324EA6EECCF03F0ED52EFCFEE
:101ED00001F303C002F302C3EAFF01C3E9FFFDC23D
:101EE000E2FFFCC2E1FFFFC202F0FEC201F00152BC
:101EF00002E0022A02D0025206E0E6CFEEFF012EF7
:101F0000FCD7022EFAD7FBC203F3FFC205F3FEC2D1
:101F100004F300C306F3000196DE015003D000D0A5
:101F2000000E016E000C0201FA6B3A0EF96F020E00
:101F3000FB6FFAC2FDF2F9C2FCF2FF6B79C0FEF250
:101F40000301006F00019DDF79C07FF0796B000C09
:101F5000795301E0E8DFC3EF0FF00201F8530EE11F
:101F60001A2C05D0000100EC0AF006D002011A502C
:101F7000020803E100017ED7020106D0F8510208F1
:101F800003E10001E5D702010001000C213002014C
:101F9000F66FF633F6331F0EF61721524FE10401A8
:101FA00000513C0B0201F76F430E040100170201C0
:101FB000F751340825E104010451800B01E0046B62
:101FC00000017BD56D98233C07D00201F96B030E0D
:101FD000FA6F00018CDD12D00201F96B020EFA6F6C
:101FE000000185DD2350FE0809E00301036B056B4A
:101FF00023C004F3040E066F000125DE1DD002018C
:10200000F75104081AE1F86B000118DF0201F96BBF
:10201000020EFA6F00016BDD2350FE080CE0233C3A
:1020200001D009D00301036B056B23C004F3010E3B
:10203000066F000108DE00D002018ED02150040896
:1020400018E1430E04010417FF0E236E0201F86B22
:10205000000183DF233C01D00AD00301036B056B31
:1020600023C004F3020E066F0001EDDD00D073D033
:10207000020121B432D003010A6BF6C209F30C6BE2
:10208000080E0B6F00015CEC09F001C0F8F20201D0
:1020900001C001F0040E0224036E01C0F8F2F96FD2
:1020A00003010A6BF6C209F30C6B080E0B6F0001FB
:1020B0005CEC09F0020101C0E9FF040E0224EA6EA3
:1020C000EF50430BF9C2EAFFF8C2E9FFEF6EF6C228
:1020D000F8F20001B3DE3FD0020103010A6BF6C241
:1020E00009F30C6B080E0B6F00015CEC09F002C0E9
:1020F000F9F201C0F8F2040E0201F827000EF923EC
:10210000F8C201F0040EF925036EF8C2F8F2F96F77
:1021100003010A6BF6C209F30C6B080E0B6F00018A
:102120005CEC09F002C0FBF201C0FAF2040E0201FD
:10213000FA27000EFB23FAC2E9FF040EFB25EA6E24
:10214000EF50430BF9C2EAFFF8C2E9FFEF6EF6C2A7
:10215000F8F2000102DF02010001E8EF10F0A19A9D
:10216000225201E13ED068523CE068A404D069A448
:1021700002D011EF09F06DA201D033D068AA04D0CB
:1021800069AA02D029EF09F068A204D069A202D09E
:1021900030EF09F068A004D069A002D0DDEF09F0AB
:1021A00068A804D069A802D0F2EF09F068AC04D0A6
:1021B00069AC02D0F7EF09F00201F56B68A60AD00E
:1021C00069A608D06CCF21F00001DBEC09F0DED667
:1021D00002D0020105D00201F551F52B0308EEE211
:1021E000000130EF08F06D6A696A080E6F6E945056
:1021F00030090201946E226A196AF2BE198EF29EAB
:102200000001C5EC09F019BEF28E08EF11F0EBD712
:1022100041EF14F0196AF2BE198EF29EC5EC09F076
:1022200019BEF28E6D6A140E6F6E696A6D86010EAC
:10223000226E1EEF11F06DB601D0ECD7222C0BD020
:102240006DBA09D0686A696AA08AC00EF212110ECE
:10225000696E020E226E43EF14F01B50016E44EFC4
:1022600014F07AB101D0FDD77C517C2BA00FE96E20
:10227000040EEA6ED8B0EA2AEFCFDDF202010001C7
:102280007B517C5D07E3196AF2BE198EF29EC0DDB8
:1022900019BEF28E0201DDC201F00001000C010E38
:1022A0000201DD5F0DE3020EEA6EDD0EE96EEF5016
:1022B00007E0020E006E002EFED700D0EF2EF9D7F9
:1022C0000001000C0201E191F2BEE181F29E0001E9
:1022D00079513E0802E23E0E796F7951792B036AFB
:1022E0003A0FE96E000E0320EA6EE0C2EFFFF29EA5
:1022F0000201E1B1F28E000181EF11F0DFC2E0F2E4
:10230000E1D7196AF2BE198EF29E020E0301086F20
:1023100000016EDC19BEF28E015207E0196AF2BEAE
:10232000198EF29E00DE19BEF28EB2EF11F07951D5
:102330003E0815E2196AF2BE198EF29E020E0301E2
:10234000086F000155DC19BEF28E015207E0196AD0
:10235000F2BE198EF29EE7DD19BEF28EE8D7DEC21C
:10236000DFF2CCD7000CF86AD09E078EEA6AE96AE1
:10237000226A266A796B806B816B836B826BC1509A
:10238000C00B0F09C16E070EB46E1E6A040E1F6EDD
:102390000C0E206E846B856B866B876B886B896BEC
:1023A0008A6B8B6B8C6B8D6B8E6B8F6B906B916B69
:1023B000926B936B946B956B966B976B986B996B19
:1023C0009A6B9B6B9C6B9D6B9E6B9F6BA06BA16BC9
:1023D000A26BA36BA46BA56BA66BA76BA86BA96B79
:1023E000AA6BAB6BAC6BAD6BAE6BAF6BB06BB16B29
:1023F000B26BB36BB46BB56BB66BB76BB86BB96BD9
:10240000BA6BBB6BBC6BBD6BBE6BBF6BC06BC16B88
:10241000C26BC36BC46BC56BC66BC76BC86BC96B38
:10242000CA6BCB6BCC6BCD6BCE6BCF6BD06BD16BE8
:10243000D26BD36BD46BD56BD66BD76BD86BD96B98
:10244000DA6BDB6BDC6BDD6BDE6BDF6BE06BE16B48
:10245000E26BE36BE46BE56BE66BE76BE86BE96BF8
:10246000EA6BEB6BEC6BED6BEE6BEF6BF06BF16BA8
:10247000F26BF36BF46BF56BF66BF76BF86BF96B58
:10248000FA6BFB6BFC6BFD6BFE6BFF6B0101006B72
:10249000016B026B036B046B056B066B076B086BC0
:1024A000096B0A6B0B6B0C6B0D6B0E6B0F6B106B70
:1024B000116B126B136B146B156B166B176B186B20
:1024C000196B1A6B1B6B1C6B1D6B1E6B1F6B206BD0
:1024D000216B226B236B246B256B266B276B286B80
:1024E000296B2A6B2B6B2C6B2D6B2E6B2F6B306B30
:1024F000316B326B336B346B356B366B376B386BE0
:10250000396B3A6B3B6B3C6B3D6B3E6B3F6B406B8F
:10251000416B426B436B446B456B466B476B486B3F
:10252000496B4A6B4B6B4C6B4D6B4E6B4F6B506BEF
:10253000516B526B536B546B556B566B576B586B9F
:10254000596B5A6B5B6B5C6B5D6B5E6B5F6B606B4F
:10255000616B626B636B646B656B666B676B686BFF
:10256000696B6A6B6B6B6C6B6D6B6E6B6F6B706BAF
:10257000716B726B736B746B756B766B776B786B5F
:10258000796B7A6B7B6B7C6B7D6B7E6B7F6B806B0F
:10259000816B826B836B846B856B866B876B886BBF
:1025A000896B8A6B8B6B8C6B8D6B8E6B8F6B906B6F
:1025B000916B926B936B946B956B966B976B986B1F
:1025C000996B9A6B9B6B9C6B9D6B9E6B9F6BA06BCF
:1025D000A16BA26BA36BA46BA56BA66BA76BA86B7F
:1025E000A96BAA6BAB6BAC6BAD6BAE6BAF6BB06B2F
:1025F000B16BB26BB36BB46BB56BB66BB76BB86BDF
:10260000B96BBA6BBB6BBC6BBD6BBE6BBF6BC06B8E
:10261000C16BC26BC36BC46BC56BC66BC76BC86B3E
:10262000C96BCA6BCB6BCC6BCD6BCE6BCF6BD06BEE
:10263000D16BD26BD36BD46BD56BD66BD76BD86B9E
:10264000D96BDA6BDB6BDC6BDD6BDE6BDF6BE06B4E
:10265000E16BE26BE36BE46BE56BE66BE76BE86BFE
:10266000E96BEA6BEB6BEC6BED6BEE6BEF6BF06BAE
:10267000F16BF26BF36BF46BF56BF66BF76BF86B5E
:10268000F96BFA6BFB6BFC6BFD6BFE6BFF6B020176
:10269000006B016B026B036B046B056B066B076BC6
:1026A000086B096B0A6B0B6B0C6B0D6B0E6B0F6B76
:1026B000106B116B126B136B146B156B166B176B26
:1026C000186B196B1A6B1B6B1C6B1D6B1E6B1F6BD6
:1026D000206B216B226B236B246B256B266B276B86
:1026E000286B296B2A6B2B6B2C6B2D6B2E6B2F6B36
:1026F000306B316B326B336B346B356B366B376BE6
:10270000386B396B3A6B3B6B3C6B3D6B3E6B3F6B95
:10271000406B416B426B436B446B456B466B476B45
:10272000486B496B4A6B4B6B4C6B4D6B4E6B4F6BF5
:10273000506B516B526B536B546B556B566B576BA5
:10274000586B596B5A6B5B6B5C6B5D6B5E6B5F6B55
:10275000606B616B626B636B646B656B666B676B05
:10276000686B696B6A6B6B6B6C6B6D6B6E6B6F6BB5
:10277000706B716B726B736B746B756B766B776B65
:10278000786B796B7A6B7B6B7C6B7D6B7E6B7F6B15
:10279000806B816B826B836B846B856B866B876BC5
:1027A000886B896B8A6B8B6B8C6B8D6B8E6B8F6B75
:1027B000906B916B926B936B946B956B966B976B25
:1027C000986B996B9A6B9B6B9C6B9D6B9E6B9F6BD5
:1027D000A06BA16BA26BA36BA46BA56BA66BA76B85
:1027E000A86BA96BAA6BAB6BAC6BAD6BAE6BAF6B35
:1027F000B06BB16BB26BB36BB46BB56BB66BB76BE5
:10280000B86BB96BBA6BBB6BBC6BBD6BBE6BBF6B94
:10281000C06BC16BC26BC36BC46BC56BC66BC76B44
:10282000C86BC96BCA6BCB6BCC6BCD6BCE6BCF6BF4
:10283000D06BD16BD26BD36BD46BD56BD66BD76BA4
:10284000D86BD96BDA6BDB6B94948B940C0EBD6EEA
:10285000B76AB66A000E0609CA6E020ECB6E010E8A
:10286000BE6E000E956E966E936E8C6AC090C0829E
:10287000C094C09EC280C150C00B0B09C16E000144
:10288000C6D48C76D8D4E9D40152D8B454D17AA124
:1028900052D1E7DC01C0DDF202010150600806E21E
:1028A000DD517A0803E3DD51DF0B01D0DD5100017A
:1028B000816F815153085CE18C74836B826B83510F
:1028C00002081FE303E1825157081BE3000E016E6B
:1028D000C250C30B0110C26EC80E0201DD6F0001B1
:1028E000DEDC840E8225E96E000E8321EA6EC28250
:1028F000C2B2FED7C4CFEFFF8C7A822BD8B4832B21
:10290000DED7836B826B6E0E816F836B826B83511C
:1029100002082EE303E1825157082AE3A2DC01C03A
:10292000DDF202010150600806E2DD517A0803E39E
:10293000DD51DF0B01D0DD510001816F8151530862
:1029400013E1840E8225E96E000E8321EA6EEFCF3B
:10295000DDF2DDC2DEF2EBDC6E0E816F8C749F0E59
:10296000006E002EFED700D0822BD8B4832BCFD799
:1029700081514C085CE18C74836B826B835102083B
:102980001FE303E1825157081BE3040E016EC2509E
:10299000C30B0110C26EC80E0201DD6F00017FDCA7
:1029A000840E8225E96E000E8321EA6EC282C2B2D5
:1029B000FED7C4CFEFFF8C7A822BD8B4832BDED71F
:1029C000836B826B6E0E816F836B826B8351020807
:1029D0002EE303E1825157082AE343DC01C0DDF214
:1029E00002010150600806E2DD517A0803E3DD517F
:1029F000DF0B01D0DD510001816F81514C0813E1E3
:102A0000840E8225E96E000E8321EA6EEFCFDDF29F
:102A1000DDC2DEF28CDC6E0E816F8C749F0E006E58
:102A2000002EFED700D0822BD8B4832BCFD7815174
:102A300051085DE18C74836B826B835102081FE344
:102A400003E1825157081BE3080E016EC250C30B0D
:102A50000110C26EC80E0201DD6F000120DC840E81
:102A60008225E96E000E8321EA6EC282C2B2FED7D1
:102A7000C4CFEFFF8C7A822BD8B4832BDED7836B45
:102A8000826B6E0E816F836B826B835102082FE322
:102A900003E1825157082BE331EC11F001C0DDF264
:102AA00002010150600806E2DD517A0803E3DD51BE
:102AB000DF0B01D0DD510001816F8151510813E11D
:102AC000840E8225E96E000E8321EA6EEFCFDDF2DF
:102AD000DDC2DEF22CDC6E0E816F8C749F0E006EF8
:102AE000002EFED700D0822BD8B4832BCED78151B5
:102AF00050081FE131EC11F001C0DDF2020101507C
:102B0000600806E2DD517A0803E3DD51DF0B01D0F6
:102B1000DD510001816F81C0DCF2000E0609CA6E32
:102B20000201DCC2CBFFD890DC31BE6E6E0E00011C
:0A2B3000816F6E0E816FA5D60300C1
:020000040030CA
:0E00000024CE3E1E008781000FC00FE00F408F
:00000001FF
;PIC18F4550
;CRC=09AB  CREATED="01-jul-11 12:50"
