:041000003EEF11F0BE
:08100800046ED8CF05F0E0CF23
:1010100006F00001E9CF0CF0EACF07F0E1CF08F0CD
:10102000E2CF09F0D9CF0AF0DACF0BF0F3CF12F00C
:10103000F4CF13F0FACF14F0F5CF15F0F6CF16F089
:10104000F7CF17F000C00EF001C00FF002C010F093
:1010500003C011F0A0AA30EF08F0A1BA9DEF10F084
:101060000EC000F00FC001F010C002F011C003F07C
:101070000CC0E9FF07C0EAFF078E08C0E1FF09C006
:10108000E2FF0AC0D9FF0BC0DAFF12C0F3FF13C0A2
:10109000F4FF14C0FAFF15C0F5FF16C0F6FF17C025
:1010A000F7FF045006C0E0FF05C0D8FF1000F76A44
:1010B000BE0FF66E100EF7220900F5501200000365
:1010C00002FFFFFFFFFFFFFFFFFFFFFFFFFFF76ACA
:1010D000DE0FF66E100EF7220900F550120000FF29
:1010E00002FFFFFFFFFFFFFFFFFFFFFFFFFFF76AAA
:1010F000FE0FF66E100EF7220900F55012004000A8
:101100000800400000000000000000000000000097
:101110000000000000000000000000000000F76A6E
:101120002E0FF66E110EF7220900F5501200400046
:10113000000040000000000000000000000000006F
:101140000000000000000000000000000000F76A3E
:101150005E0FF66E110EF7220900F550120009021B
:101160004300020100803209040000010202010074
:1011700005240010010424020205240600010524B0
:10118000010001070581030800FA09040100020AB1
:10119000000000070502024000010705820240002E
:1011A0000100F76AB20FF66E110EF7220900F55032
:1011B00012000200F76AC40FF66E110EF722090042
:1011C000F550120012171B20FFFFFFFFF76ADC0F1C
:1011D000F66E110EF7220900F550120012011001EF
:1011E0000200004061043300000101020001F76ABF
:1011F000FE0FF66E110EF7220900F55012000403DF
:10120000090408034300430053001803530045003A
:101210005200490041004C002000440045004D00B0
:101220004F006D92699468A402D06894FCD7A9EF2E
:1012300010F0400E0401016F040E036F180E026FD0
:10124000880E006F046B040E076F580E066F0001C6
:10125000000C70A002D0EDDF7090689AB2EF10F031
:101260006A6A6892B8EF10F00201429141BF428170
:10127000419F4151100803E2000E016E1BD042A1B4
:101280000DD0036A4151000112DFFF0802E1000E98
:1012900001D0010E016E02010DD00CD0036A415144
:1012A000000115DFFF0802E1000E01D0010E016E02
:1012B000020100D00001000C020148514A03F3CFA3
:1012C00001F0F4CF00F04B03F350002649514A03DC
:1012D000F3500020026E0001000C036A020140512D
:1012E000700FE96E0F0E0320EA6EEF6A40C241F202
:1012F0000001BADF015227E00201496B40C248F207
:101300004B6B080E4A6F0001D7DF020101C0E9FFF5
:10131000040E0224EA6EEF6A496B40C248F24B6B3E
:10132000080E4A6F0001C8DF02C042F201C041F25C
:10133000040E02014127000E422341C2E9FF040EC0
:101340004225EA6EEF6A0001000C010E02013F6FB8
:101350003F510F0807E33FC240F20001BEDF020128
:101360003F2BF6D70001000C2C6A2B6A250E2A6E43
:10137000800E296E2D6A2E6A080E2F6E7E6B7D916F
:10138000316A306A796B7A91000C0201356B355104
:1013900001080AE3036A3551270FE96E000E0320A6
:1013A000EA6EEF6A352BF3D70001DEDF1B6A010E10
:1013B0001C6E1A6A000C6896000C6A6A686A9F0EB6
:1013C0006B6E3D0E696E6E6AC0DFDFDF160E706EEB
:1013D00068A602D0F0DFFCD76D982BDF030E226EDB
:1013E000BEEF10F0698468986D82C4EF10F0689CBD
:1013F000CAEF10F03AC223F0000CFF0E236E000C6F
:101400000201386B26522CE038513F0829E31D5069
:10141000000A000105E0020A09E0010A0DE012D00D
:10142000036A255094DEE8CF39F20CD0036A2550C8
:10143000DEDEE8CF39F206D0036A2550C7DEE8CFFA
:1014400039F200D0252A260602013851382B580FD0
:10145000E96E040EEA6ED8B0EA2A39C2EFFFD2D79D
:10146000265204E13851400801E01A6A38C23AF2C3
:101470000001C0DF000C256A1D6A04011B51010A2E
:10148000000107E0030A0AE0010A0BE0220A1BE060
:101490002BD0120E266E030E1D6E28D0430E266E24
:1014A00025D0020E1D6E036A04011A511E0FE96E4B
:1014B000000E0320EA6EEFCF25F0036A25500001ED
:1014C00096DE266E13D0036A04011A51000172DE03
:1014D000256E253C01D006D0036A255038DE266EE5
:1014E00005D002D08ADF0ED088DF0CD004011F5354
:1014F00005E126501E5D02E21EC426F0010E1A6EA2
:1015000000017EDFD0EF0BF00201375306E1040E3D
:10151000226E00011ADFE7D00201050E226E040ED2
:101520003A6F980E396F010E386F38510F08D8A0F6
:10153000DAD038C240F20001D0DE02013B6B036A10
:1015400038510001C4DDFF0865E0040E02013B6F65
:10155000D8903835036A0001E2DD0900F5CF03F0C9
:1015600002013C6F03C03DF2496B38C248F24B6B3D
:10157000080E4A6F0001A0DE01C03FF2010E020119
:101580000124016E000E0220036E01C0E9FF040E6B
:101590000324EA6E3CC2EFFF496B38C248F24B6B42
:1015A000080E4A6F000188DE01C03FF2020E020100
:1015B0000124016E000E0220036E01C0E9FF040E3B
:1015C0000324EA6E3AC2ECFFED5239C2EFFFD89025
:1015D0003835036A0001A3DD0900F5CF03F00201ED
:1015E000392703503A23880E3E6F3DB13E813DB30B
:1015F0003E83496B38C248F24B6B080E4A6F0001BC
:101600005BDE020101C0E9FF040E0224EA6E3EC265
:10161000EFFF0001036A02013851000148DDFF08B5
:1016200047E002013B83496B38C248F24B6B080E1E
:101630004A6F000141DE02C040F201C03FF2040ED9
:1016400002013F27000E4023020E3F25016E000ECF
:101650004021036E01C0E9FF040E0324EA6E3AC282
:10166000ECFFED5239C2EFFFD8903835036A000124
:101670003EDD0900F5CF03F00201392703503A237C
:10168000496B38C248F24B6B080E4A6F000114DEFA
:1016900002C040F201C03FF2040E02013F27000EDB
:1016A00040233FC2E9FF040E4025EA6E400EEF6E74
:1016B00002013B51060802E10E0E3B6F036A3851EE
:1016C0000001F5DC010803E002013B890001036A27
:1016D00002013851700FE96E0F0E0320EA6E3BC213
:1016E000EFFF382B22D70001C8EF0BF0040119518E
:1016F000000A00010DE0010A15E0020A20E0060AD6
:101700002AE0030A31E00E0A31E0010A37E046D050
:101710001CC058F40401596B020E02013A6F00011B
:1017200069DE3ED004011A2D07D0010E1C160201FD
:101730003A6B00015FDE02D000015FDE31D00401B0
:101740001A2D06D01C8202013A6B000153DE02D032
:10175000000153DE25D0020E1A6E1AC424F00201D5
:101760003A6B000147DE1CD086D61AD01BC058F455
:10177000010E02013A6F00013DDE12D004011A5140
:1017800001080AE31AC41BF01AC437F20001BCD6E0
:1017900002013A6B00012EDE000102D02EDE00D0E5
:1017A00069EF0DF01BC037F204011951000A000166
:1017B00005E00A0A0CE0010A2BE03FD00401586B57
:1017C000596B020E02013A6F000114DE38D002019B
:1017D00037531BE0010E375D036A0001E2DC016E46
:1017E00004011C5DD8A002D002010FD0036A1C5175
:1017F000270FE96E000E0320EA6EEFCF58F4010EBA
:1018000002013A6F0001F6DD02D00001F6DD17D0CB
:10181000020137530FE0036A04011C51270FE96EE0
:10182000000E0320EA6E1AC4EFFF02013A6B0001BA
:10183000E1DD02D00001E1DD02D0DFDD00D069EFA3
:101840000DF00201389137BF3881379F38A119D088
:10185000496B37C248F24B6B080E4A6F00012CDD12
:1018600002C03AF201C039F2040E02013927000E1B
:101870003A2339C2E9FF040E3A25EA6E880EEF6E6C
:101880000FD0496B37C248F24B6B080E4A6F00010C
:1018900013DD020101C0E9FF040E0224EA6EEF6AC3
:1018A0000001D3EF0CF00201389137BF3881379F28
:1018B00038A119D0496B37C248F24B6B080E4A6FFA
:1018C0000001FADC02C03AF201C039F2040E020152
:1018D0003927000E3A2339C2E9FF040E3A25EA6E91
:1018E000840EEF6E10D0496B37C248F24B6B080E76
:1018F0004A6F0001E1DC020101C0E9FF040E02248D
:10190000EA6E840EEF6E0001DBEF0CF002013891FD
:1019100037BF3881379F38A119D0496B37C248F299
:101920004B6B080E4A6F0001C7DC02C03BF201C0DE
:101930003AF2040E02013A27000E3B233AC2E9FFB5
:10194000040E3B25EA6EEFCF39F210D0496B37C257
:1019500048F24B6B080E4A6F0001AEDC020101C079
:10196000E9FF040E0224EA6EEFCF39F239AF02D05C
:1019700039B502D0000E01D0010E016E0001E7EF73
:101980000CF01CC441F270DC01522EE0040119512C
:10199000010A000105E0020A0BE0030A11E022D06F
:1019A0001CC437F24ED702013A6B000123DD1CD074
:1019B0001CC437F278D702013A6B00011BDD14D04A
:1019C0000401586B596B1CC437F200019FD70152B8
:1019D00003E0010E0401586F020E02013A6F00018C
:1019E00009DD02D00ADD00D069EF0DF0FE0E236E96
:1019F000000C04011C2D01D002D01C534FE11951E1
:101A0000000A00010BE0010A0DE0210A1CE0010AB6
:101A10001FE0030A30E0010A35E03DD0010E806F7F
:101A2000E5DF3BD0040EEA6E580EE96EE26A320E34
:101A3000E16E080E016EE6CFEEFF012EFCD71EC44C
:101A40003AF2D8DC2AD0020E806F7D81CFDF25D01C
:101A5000040EEA6E580EE96EE26A290EE16E070E78
:101A6000016EE6CFEEFF012EFCD7070E02013A6FA2
:101A70000001C0DC12D01AC47EF002013A6B0001F2
:101A8000B9DC0BD01AC431F01BC430F002013A6B40
:101A90000001B0DC02D0B1DC00D00401000169EF2C
:101AA0000DF01A6A040118517F0B000A000107E0CB
:101AB000010A07E0030A07E0230A07E008D016D668
:101AC00008D070D606D05DD704D093D702D095DC6D
:101AD00000D0D4EF0FF00201496B38C248F24B6BD3
:101AE000080E4A6F00015CEC09F0020101C0E9FF39
:101AF000040E0224EA6EEFCF3AF23951020806E1F1
:101B00003AAD02D0396B02D0010E396F395103085A
:101B10001CE1840E3A6F496B38C248F24B6B080ED9
:101B20004A6F00015CEC09F002C03EF201C03DF2D8
:101B3000040E02013D27000E3E233DC2E9FF040EC4
:101B40003E25EA6E840EEF6E07D0392D03D0C80E05
:101B50003A6F02D0880E3A6FD8903835036A000188
:101B60008FEC08F00900F5CF03F002013B6F03C0D2
:101B70003CF2496B38C248F24B6B080E4A6F0001C9
:101B80005CEC09F001C03DF2010E02010124016E7E
:101B9000000E0220036E01C0E9FF040E0324EA6E6A
:101BA0003BC2EFFF3CB13A813CB33A83496B38C248
:101BB00048F24B6B080E4A6F00015CEC09F0020121
:101BC00001C0E9FF040E0224EA6E3AC2EFFF0001F1
:101BD000000C036A02014751700FE96E0F0E0320DB
:101BE000EA6EEF521BE0496B47C248F24B6B080E9E
:101BF0004A6F00015CEC09F002C049F201C048F2F2
:101C0000040E02014827000E492348C2E9FF040ED2
:101C10004925EA6EEFCF48F248AF02D0000E01D05E
:101C2000010E016E0001000C42C247F2D2DF0152E8
:101C3000D8B486D00201496B42C248F24B6B080E01
:101C40004A6F00015CEC09F002C048F201C047F2A3
:101C5000040E02014727000E4823010E4725016E9E
:101C6000000E4821036E01C0E9FF040E0324EA6E52
:101C700043C2EFFF4551020820E1496B42C248F2DE
:101C80004B6B080E4A6F00015CEC09F002C048F291
:101C900001C047F2040E02014727000E482347C245
:101CA000E9FF040E4825EA6EEFCF46F246AD02D0BA
:101CB000456B02D0010E456F1AD04551040817E15B
:101CC000496B42C248F24B6B080E4A6F00015CEC54
:101CD00009F0020101C0E9FF040E0224EA6EEFCF11
:101CE00046F246AD03D0010E456F01D0456B452D40
:101CF00003D0C80E466F02D0880E466F44B14681AD
:101D000044B34683496B42C248F24B6B080E4A6F9C
:101D100000015CEC09F002C048F201C047F2040E79
:101D200002014727000E482347C2E9FF040E482559
:101D3000EA6E46C2EFFF010E016E05D000D0000131
:101D4000000E016E02010001000C8051010A03E047
:101D5000030A15E028D0EA6A320EE96E040EE26E3C
:101D6000180EE16E080E016EE6CFEEFF012EFCD7D5
:101D700002013A6B0001FAEC09F0806B16D0EA6AB6
:101D8000290EE96E040EE26E180EE16E070E016E6A
:101D9000E6CFEEFF012EFCD7806B02013A6B00010B
:101DA000FAEC09F002D0806B00D014EF0FF00201C2
:101DB000496B38C248F24B6B080E4A6F00015CEC6D
:101DC00009F002C03AF201C039F2010E0201012409
:101DD000016E000E0220036E01C0E9FF040E032411
:101DE000EA6E036AEFCF01F003C002F0000108EFD2
:101DF0000FF07A91020E0201386F396F00016BDE2D
:101E0000000C7A817C6B020E0201386F0001CFD783
:101E100001C07BF07B5301E1ECDF1BEF0FF002010F
:101E2000375304E1000191D706D00201375102086F
:101E300003E10001E6D702010001000C38C26EFF89
:101E40000201385303E0040E226E02D0020E226E0D
:101E5000000130EF0FF01B6A1A6A24C038F2EED787
:101E6000AEEF0FF03AC247F2B4DE01524AE002018F
:101E7000496B3AC248F24B6B080E4A6F00015CECAA
:101E800009F002C043F201C042F2040E02014227EF
:101E9000000E4323020E4225016E000E4321036E05
:101EA00001C0E9FF040E0324EA6EECCF03F0ED520B
:101EB000EFCF40F203C041F241C2EAFF40C2E9FF66
:101EC0003CC2E2FF3BC2E1FF3EC202F03DC201F074
:101ED000015202E0022A02D0025206E0E6CFEEFFF3
:101EE000012EFCD7022EFAD73AC242F23EC244F289
:101EF0003DC243F23FC245F2000196DE015003D0DD
:101F000000D0000E016E95EF0FF00201396B3A0E12
:101F1000386F020E3A6F39C23CF238C23BF23E6B68
:101F200079C03DF23F6F00019DD779C07FF0796B9A
:101F30009DEF0FF0795301E0E8D7B5EF0FF0020104
:101F400037530EE11A2C05D0000100EC0AF006D040
:101F500002011A50020803E100017DD7020106D0F8
:101F60003751020803E10001E5D702010001000C2E
:101F700021300201356F353335331F0E35172152AD
:101F80004FE1040100513C0B0201366F430E040186
:101F9000001702013651340825E104010451800B79
:101FA00001E0046B00017DD56D98233C07D0020150
:101FB000386B030E396F00018EDD12D00201386BD1
:101FC000020E396F000187DD2350FE0809E002018F
:101FD000426B446B23C043F2040E456F000124DEC4
:101FE0001DD00201365104081AE1376B000117DFDA
:101FF0000201386B020E396F00016DDD2350FE08BF
:102000000CE0233C01D009D00201426B446B23C099
:1020100043F2010E456F000107DE00D002018AD0B5
:102020002150040818E1430E04010417FF0E236E2B
:102030000201376B000183DF233C01D00AD002018B
:10204000426B446B23C043F2020E456F0001ECDD8E
:1020500000D06FD0020121B430D0496B35C248F2B4
:102060004B6B080E4A6F00015CEC09F001C037F2BF
:10207000020101C001F0040E0224036E01C037F218
:10208000386F496B35C248F24B6B080E4A6F00013E
:102090005CEC09F0020101C0E9FF040E0224EA6EC3
:1020A000EF50430B38C2EAFF37C2E9FFEF6E35C28B
:1020B00037F20001B4DE3DD00201496B35C248F26F
:1020C0004B6B080E4A6F00015CEC09F002C038F25D
:1020D00001C037F2040E02013727000E382337C241
:1020E00001F0040E3825036E37C237F2386F496BA2
:1020F00035C248F24B6B080E4A6F00015CEC09F0E8
:1021000002C03AF201C039F2040E02013927000E72
:102110003A2339C2E9FF040E3A25EA6EEF50430B29
:1021200038C2EAFF37C2E9FFEF6E35C237F200016D
:1021300006DF02010001D6EF10F0A19A225201E160
:102140003ED068523CE068A404D069A402D011EFEC
:1021500009F06DA201D033D068AA04D069AA02D0D8
:1021600029EF09F068A204D069A202D030EF09F08B
:1021700068A004D069A002D0DDEF09F068A804D0FF
:1021800069A802D0F2EF09F068AC04D069AC02D0C3
:10219000F7EF09F00201346B68A60AD069A608D0EF
:1021A0006CCF21F00001DBEC09F0E2D602D0020195
:1021B00005D002013451342B0308EEE2000130EF68
:1021C00008F06D6A696A080E6F6E9450300902015A
:1021D000946E226A196AF2BE198EF29E0001C5EC55
:1021E00009F019BEF28EF6EF10F0EBD70CEF13F0FA
:1021F000196AF2BE198EF29EC5EC09F019BEF28E74
:102200006D6A140E6F6E696A6D86010E226E0CEF98
:1022100011F06DB601D0ECD7222C0BD06DBA09D0DD
:10222000686A696AA08AC00EF212110E696E020E07
:10223000226E0DEF13F01B50016E0EEF13F07AB10A
:1022400001D0FDD77C517C2BA00FE96E040EEA6E05
:10225000D8B0EA2AEFCF29F2020100017B517C5D60
:1022600007E3196AF2BE198EF29EC3DD19BEF28E23
:10227000020129C201F0000113EF13F0F86AD09EA9
:10228000078EEA6AE96A226A266A796B806B816B3B
:10229000826B836B846B856B866B886B876BC1509D
:1022A000C00B0F09C16E070EB46E1E6A040E1F6EBE
:1022B0000C0E206E896B8A6B8B6B8C6B8D6B8E6BAF
:1022C0008F6B906B916B926B936B946B956B966B22
:1022D000976B986B996B9A6B9B6B9C6B9D6B9E6BD2
:1022E0009F6BA06BA16BA26BA36BA46BA56BA66B82
:1022F000A76BA86BA96BAA6BAB6BAC6BAD6BAE6B32
:10230000AF6BB06BB16BB26BB36BB46BB56BB66BE1
:10231000B76BB86BB96BBA6BBB6BBC6BBD6BBE6B91
:10232000BF6BC06BC16BC26BC36BC46BC56BC66B41
:10233000C76BC86BC96BCA6BCB6BCC6BCD6BCE6BF1
:10234000CF6BD06BD16BD26BD36BD46BD56BD66BA1
:10235000D76BD86BD96BDA6BDB6BDC6BDD6BDE6B51
:10236000DF6BE06BE16BE26BE36BE46BE56BE66B01
:10237000E76BE86BE96BEA6BEB6BEC6BED6BEE6BB1
:10238000EF6BF06BF16BF26BF36BF46BF56BF66B61
:10239000F76BF86BF96BFA6BFB6BFC6BFD6BFE6B11
:1023A000FF6B0101006B016B026B036B046B056B30
:1023B000066B076B086B096B0A6B0B6B0C6B0D6B79
:1023C0000E6B0F6B106B116B126B136B146B156B29
:1023D000166B176B186B196B1A6B1B6B1C6B1D6BD9
:1023E0001E6B1F6B206B216B226B236B246B256B89
:1023F000266B276B286B296B2A6B2B6B2C6B2D6B39
:102400002E6B2F6B306B316B326B336B346B356BE8
:10241000366B376B386B396B3A6B3B6B3C6B3D6B98
:102420003E6B3F6B406B416B426B436B446B456B48
:10243000466B476B486B496B4A6B4B6B4C6B4D6BF8
:102440004E6B4F6B506B516B526B536B546B556BA8
:10245000566B576B586B596B5A6B5B6B5C6B5D6B58
:102460005E6B5F6B606B616B626B636B646B656B08
:10247000666B676B686B696B6A6B6B6B6C6B6D6BB8
:102480006E6B6F6B706B716B726B736B746B756B68
:10249000766B776B786B796B7A6B7B6B7C6B7D6B18
:1024A0007E6B7F6B806B816B826B836B846B856BC8
:1024B000866B876B886B896B8A6B8B6B8C6B8D6B78
:1024C0008E6B8F6B906B916B926B936B946B956B28
:1024D000966B976B986B996B9A6B9B6B9C6B9D6BD8
:1024E0009E6B9F6BA06BA16BA26BA36BA46BA56B88
:1024F000A66BA76BA86BA96BAA6BAB6BAC6BAD6B38
:10250000AE6BAF6BB06BB16BB26BB36BB46BB56BE7
:10251000B66BB76BB86BB96BBA6BBB6BBC6BBD6B97
:10252000BE6BBF6BC06BC16BC26BC36BC46BC56B47
:10253000C66BC76BC86BC96BCA6BCB6BCC6BCD6BF7
:10254000CE6BCF6BD06BD16BD26BD36BD46BD56BA7
:10255000D66BD76BD86BD96BDA6BDB6BDC6BDD6B57
:10256000DE6BDF6BE06BE16BE26BE36BE46BE56B07
:10257000E66BE76BE86BE96BEA6BEB6BEC6BED6BB7
:10258000EE6BEF6BF06BF16BF26BF36BF46BF56B67
:10259000F66BF76BF86BF96BFA6BFB6BFC6BFD6B17
:1025A000FE6BFF6B0201006B016B026B036B046B34
:1025B000056B066B076B086B096B0A6B0B6B0C6B7F
:1025C0000D6B0E6B0F6B106B116B126B136B146B2F
:1025D000156B166B176B186B196B1A6B1B6B1C6BDF
:1025E0001D6B1E6B1F6B206B216B226B236B246B8F
:1025F000256B266B276B286B000E956E966E936E7F
:102600008C6AC090C082C094C09EC280C150C00B72
:102610000B09C16E0001E9D5FCD50DD601523DE094
:102620007AA13BD00CD601C029F20201015060080A
:1026300006E229517A0803E32951DF0B01D0295121
:102640000001856F8551530828E16E0E856F8C74EB
:10265000886B876B885101081EE303E187519F084F
:102660001AE3000E016EC250C30B0110C26E4F0E72
:10267000006E002EFED700D0890E8725E96E000E71
:102680008821EA6EC282C2B2FED7C4CFEFFF872B89
:0E269000D8B4882BDFD7886B876BBED70300CA
:020000040030CA
:0E00000024CE3E1E008781000FC00FE00F408F
:00000001FF
;PIC18F4550
;CRC=6F7F  CREATED="04-jun-11 21:55"
